{
	"contracts/Fund_Me.sol": {
		"FundMe": {
			"abi": [
				{
					"inputs": [
						{
							"internalType": "address",
							"name": "",
							"type": "address"
						}
					],
					"name": "addressToAmountFunded",
					"outputs": [
						{
							"internalType": "uint256",
							"name": "",
							"type": "uint256"
						}
					],
					"stateMutability": "view",
					"type": "function"
				},
				{
					"inputs": [],
					"name": "fund",
					"outputs": [],
					"stateMutability": "payable",
					"type": "function"
				},
				{
					"inputs": [
						{
							"internalType": "uint256",
							"name": "",
							"type": "uint256"
						}
					],
					"name": "funders",
					"outputs": [
						{
							"internalType": "address",
							"name": "",
							"type": "address"
						}
					],
					"stateMutability": "view",
					"type": "function"
				},
				{
					"inputs": [
						{
							"internalType": "uint256",
							"name": "ethAmount",
							"type": "uint256"
						}
					],
					"name": "getConversionRate",
					"outputs": [
						{
							"internalType": "uint256",
							"name": "",
							"type": "uint256"
						}
					],
					"stateMutability": "view",
					"type": "function"
				},
				{
					"inputs": [],
					"name": "getPrice",
					"outputs": [
						{
							"internalType": "uint256",
							"name": "",
							"type": "uint256"
						}
					],
					"stateMutability": "view",
					"type": "function"
				},
				{
					"inputs": [],
					"name": "minimumUSD",
					"outputs": [
						{
							"internalType": "uint256",
							"name": "",
							"type": "uint256"
						}
					],
					"stateMutability": "view",
					"type": "function"
				}
			],
			"devdoc": {
				"kind": "dev",
				"methods": {},
				"version": 1
			},
			"evm": {
				"assembly": "    /* \"contracts/Fund_Me.sol\":240:1431  contract FundMe {... */\n  mstore(0x40, 0x80)\n    /* \"contracts/Fund_Me.sol\":294:296  50 */\n  0x32\n    /* \"contracts/Fund_Me.sol\":265:296  uint256 public minimumUSD  = 50 */\n  0x00\n  sstore\n    /* \"contracts/Fund_Me.sol\":240:1431  contract FundMe {... */\n  callvalue\n  dup1\n  iszero\n  tag_1\n  jumpi\n  0x00\n  dup1\n  revert\ntag_1:\n  pop\n  dataSize(sub_0)\n  dup1\n  dataOffset(sub_0)\n  0x00\n  codecopy\n  0x00\n  return\nstop\n\nsub_0: assembly {\n        /* \"contracts/Fund_Me.sol\":240:1431  contract FundMe {... */\n      mstore(0x40, 0x80)\n      jumpi(tag_1, lt(calldatasize, 0x04))\n      shr(0xe0, calldataload(0x00))\n      dup1\n      0x3430a88c\n      eq\n      tag_2\n      jumpi\n      dup1\n      0x3e47d6f3\n      eq\n      tag_3\n      jumpi\n      dup1\n      0x6e5b6b28\n      eq\n      tag_4\n      jumpi\n      dup1\n      0x98d5fdca\n      eq\n      tag_5\n      jumpi\n      dup1\n      0xb60d4288\n      eq\n      tag_6\n      jumpi\n      dup1\n      0xdc0d3dff\n      eq\n      tag_7\n      jumpi\n    tag_1:\n      0x00\n      dup1\n      revert\n        /* \"contracts/Fund_Me.sol\":265:296  uint256 public minimumUSD  = 50 */\n    tag_2:\n      callvalue\n      dup1\n      iszero\n      tag_8\n      jumpi\n      0x00\n      dup1\n      revert\n    tag_8:\n      pop\n      tag_9\n      tag_10\n      jump\t// in\n    tag_9:\n      mload(0x40)\n      tag_11\n      swap2\n      swap1\n      tag_12\n      jump\t// in\n    tag_11:\n      mload(0x40)\n      dup1\n      swap2\n      sub\n      swap1\n      return\n        /* \"contracts/Fund_Me.sol\":346:402  mapping(address => uint256) public addressToAmountFunded */\n    tag_3:\n      callvalue\n      dup1\n      iszero\n      tag_13\n      jumpi\n      0x00\n      dup1\n      revert\n    tag_13:\n      pop\n      tag_14\n      0x04\n      dup1\n      calldatasize\n      sub\n      dup2\n      add\n      swap1\n      tag_15\n      swap2\n      swap1\n      tag_16\n      jump\t// in\n    tag_15:\n      tag_17\n      jump\t// in\n    tag_14:\n      mload(0x40)\n      tag_18\n      swap2\n      swap1\n      tag_12\n      jump\t// in\n    tag_18:\n      mload(0x40)\n      dup1\n      swap2\n      sub\n      swap1\n      return\n        /* \"contracts/Fund_Me.sol\":1107:1428  function getConversionRate(uint256 ethAmount) public view returns (uint256){  //converting given eth to real time usd... */\n    tag_4:\n      callvalue\n      dup1\n      iszero\n      tag_19\n      jumpi\n      0x00\n      dup1\n      revert\n    tag_19:\n      pop\n      tag_20\n      0x04\n      dup1\n      calldatasize\n      sub\n      dup2\n      add\n      swap1\n      tag_21\n      swap2\n      swap1\n      tag_22\n      jump\t// in\n    tag_21:\n      tag_23\n      jump\t// in\n    tag_20:\n      mload(0x40)\n      tag_24\n      swap2\n      swap1\n      tag_12\n      jump\t// in\n    tag_24:\n      mload(0x40)\n      dup1\n      swap2\n      sub\n      swap1\n      return\n        /* \"contracts/Fund_Me.sol\":782:1099  function getPrice() public view returns(uint256) {    //gets real time eth to usd value ... */\n    tag_5:\n      callvalue\n      dup1\n      iszero\n      tag_25\n      jumpi\n      0x00\n      dup1\n      revert\n    tag_25:\n      pop\n      tag_26\n      tag_27\n      jump\t// in\n    tag_26:\n      mload(0x40)\n      tag_28\n      swap2\n      swap1\n      tag_12\n      jump\t// in\n    tag_28:\n      mload(0x40)\n      dup1\n      swap2\n      sub\n      swap1\n      return\n        /* \"contracts/Fund_Me.sol\":450:774  function  fund() public payable ... */\n    tag_6:\n      tag_29\n      tag_30\n      jump\t// in\n    tag_29:\n      stop\n        /* \"contracts/Fund_Me.sol\":303:327  address[] public funders */\n    tag_7:\n      callvalue\n      dup1\n      iszero\n      tag_31\n      jumpi\n      0x00\n      dup1\n      revert\n    tag_31:\n      pop\n      tag_32\n      0x04\n      dup1\n      calldatasize\n      sub\n      dup2\n      add\n      swap1\n      tag_33\n      swap2\n      swap1\n      tag_22\n      jump\t// in\n    tag_33:\n      tag_34\n      jump\t// in\n    tag_32:\n      mload(0x40)\n      tag_35\n      swap2\n      swap1\n      tag_36\n      jump\t// in\n    tag_35:\n      mload(0x40)\n      dup1\n      swap2\n      sub\n      swap1\n      return\n        /* \"contracts/Fund_Me.sol\":265:296  uint256 public minimumUSD  = 50 */\n    tag_10:\n      sload(0x00)\n      dup2\n      jump\t// out\n        /* \"contracts/Fund_Me.sol\":346:402  mapping(address => uint256) public addressToAmountFunded */\n    tag_17:\n      mstore(0x20, 0x02)\n      dup1\n      0x00\n      mstore\n      keccak256(0x00, 0x40)\n      0x00\n      swap2\n      pop\n      swap1\n      pop\n      sload\n      dup2\n      jump\t// out\n        /* \"contracts/Fund_Me.sol\":1107:1428  function getConversionRate(uint256 ethAmount) public view returns (uint256){  //converting given eth to real time usd... */\n    tag_23:\n        /* \"contracts/Fund_Me.sol\":1174:1181  uint256 */\n      0x00\n        /* \"contracts/Fund_Me.sol\":1234:1250  uint256 ethPrice */\n      dup1\n        /* \"contracts/Fund_Me.sol\":1253:1263  getPrice() */\n      tag_38\n        /* \"contracts/Fund_Me.sol\":1253:1261  getPrice */\n      tag_27\n        /* \"contracts/Fund_Me.sol\":1253:1263  getPrice() */\n      jump\t// in\n    tag_38:\n        /* \"contracts/Fund_Me.sol\":1234:1263  uint256 ethPrice = getPrice() */\n      swap1\n      pop\n        /* \"contracts/Fund_Me.sol\":1274:1296  uint256 ethAmountInUsd */\n      0x00\n        /* \"contracts/Fund_Me.sol\":1322:1326  1e18 */\n      0x0de0b6b3a7640000\n        /* \"contracts/Fund_Me.sol\":1311:1320  ethAmount */\n      dup5\n        /* \"contracts/Fund_Me.sol\":1300:1308  ethPrice */\n      dup4\n        /* \"contracts/Fund_Me.sol\":1300:1320  ethPrice * ethAmount */\n      tag_39\n      swap2\n      swap1\n      tag_40\n      jump\t// in\n    tag_39:\n        /* \"contracts/Fund_Me.sol\":1299:1326  (ethPrice * ethAmount)/1e18 */\n      tag_41\n      swap2\n      swap1\n      tag_42\n      jump\t// in\n    tag_41:\n        /* \"contracts/Fund_Me.sol\":1274:1326  uint256 ethAmountInUsd = (ethPrice * ethAmount)/1e18 */\n      swap1\n      pop\n        /* \"contracts/Fund_Me.sol\":1406:1420  ethAmountInUsd */\n      dup1\n        /* \"contracts/Fund_Me.sol\":1399:1420  return ethAmountInUsd */\n      swap3\n      pop\n      pop\n      pop\n        /* \"contracts/Fund_Me.sol\":1107:1428  function getConversionRate(uint256 ethAmount) public view returns (uint256){  //converting given eth to real time usd... */\n      swap2\n      swap1\n      pop\n      jump\t// out\n        /* \"contracts/Fund_Me.sol\":782:1099  function getPrice() public view returns(uint256) {    //gets real time eth to usd value ... */\n    tag_27:\n        /* \"contracts/Fund_Me.sol\":822:829  uint256 */\n      0x00\n        /* \"contracts/Fund_Me.sol\":895:926  AggregatorV3Interface priceFeed */\n      dup1\n        /* \"contracts/Fund_Me.sol\":951:993  0x8A753747A1Fa494EC906cE90E9f37563A8AF630e */\n      0x8a753747a1fa494ec906ce90e9f37563a8af630e\n        /* \"contracts/Fund_Me.sol\":895:994  AggregatorV3Interface priceFeed = AggregatorV3Interface(0x8A753747A1Fa494EC906cE90E9f37563A8AF630e) */\n      swap1\n      pop\n        /* \"contracts/Fund_Me.sol\":1007:1019  int256 price */\n      0x00\n        /* \"contracts/Fund_Me.sol\":1024:1033  priceFeed */\n      dup2\n        /* \"contracts/Fund_Me.sol\":1024:1049  priceFeed.latestRoundData */\n      0xffffffffffffffffffffffffffffffffffffffff\n      and\n      0xfeaf968c\n        /* \"contracts/Fund_Me.sol\":1024:1051  priceFeed.latestRoundData() */\n      mload(0x40)\n      dup2\n      0xffffffff\n      and\n      0xe0\n      shl\n      dup2\n      mstore\n      0x04\n      add\n      0xa0\n      mload(0x40)\n      dup1\n      dup4\n      sub\n      dup2\n      dup7\n      gas\n      staticcall\n      iszero\n      dup1\n      iszero\n      tag_45\n      jumpi\n      returndatasize\n      0x00\n      dup1\n      returndatacopy\n      revert(0x00, returndatasize)\n    tag_45:\n      pop\n      pop\n      pop\n      pop\n      mload(0x40)\n      returndatasize\n      not(0x1f)\n      0x1f\n      dup3\n      add\n      and\n      dup3\n      add\n      dup1\n      0x40\n      mstore\n      pop\n      dup2\n      add\n      swap1\n      tag_46\n      swap2\n      swap1\n      tag_47\n      jump\t// in\n    tag_46:\n        /* \"contracts/Fund_Me.sol\":1005:1051  (,int256 price,,,)=priceFeed.latestRoundData() */\n      pop\n      pop\n      pop\n      swap2\n      pop\n      pop\n        /* \"contracts/Fund_Me.sol\":1086:1090  1e10 */\n      0x02540be400\n        /* \"contracts/Fund_Me.sol\":1078:1083  price */\n      dup2\n        /* \"contracts/Fund_Me.sol\":1078:1090  price * 1e10 */\n      tag_48\n      swap2\n      swap1\n      tag_49\n      jump\t// in\n    tag_48:\n        /* \"contracts/Fund_Me.sol\":1062:1091  return  uint256(price * 1e10) */\n      swap3\n      pop\n      pop\n      pop\n        /* \"contracts/Fund_Me.sol\":782:1099  function getPrice() public view returns(uint256) {    //gets real time eth to usd value ... */\n      swap1\n      jump\t// out\n        /* \"contracts/Fund_Me.sol\":450:774  function  fund() public payable ... */\n    tag_30:\n        /* \"contracts/Fund_Me.sol\":618:628  minimumUSD */\n      sload(0x00)\n        /* \"contracts/Fund_Me.sol\":607:616  msg.value */\n      callvalue\n        /* \"contracts/Fund_Me.sol\":607:628  msg.value>=minimumUSD */\n      lt\n      iszero\n        /* \"contracts/Fund_Me.sol\":599:669  require(msg.value>=minimumUSD,\"Minimun required amount not fulfilled\") */\n      tag_51\n      jumpi\n      mload(0x40)\n      0x08c379a000000000000000000000000000000000000000000000000000000000\n      dup2\n      mstore\n      0x04\n      add\n      tag_52\n      swap1\n      tag_53\n      jump\t// in\n    tag_52:\n      mload(0x40)\n      dup1\n      swap2\n      sub\n      swap1\n      revert\n    tag_51:\n        /* \"contracts/Fund_Me.sol\":450:774  function  fund() public payable ... */\n      jump\t// out\n        /* \"contracts/Fund_Me.sol\":303:327  address[] public funders */\n    tag_34:\n      0x01\n      dup2\n      dup2\n      sload\n      dup2\n      lt\n      tag_54\n      jumpi\n      0x00\n      dup1\n      revert\n    tag_54:\n      swap1\n      0x00\n      mstore\n      keccak256(0x00, 0x20)\n      add\n      0x00\n      swap2\n      pop\n      sload\n      swap1\n      0x0100\n      exp\n      swap1\n      div\n      0xffffffffffffffffffffffffffffffffffffffff\n      and\n      dup2\n      jump\t// out\n        /* \"#utility.yul\":7:84   */\n    tag_56:\n        /* \"#utility.yul\":44:51   */\n      0x00\n        /* \"#utility.yul\":73:78   */\n      dup2\n        /* \"#utility.yul\":62:78   */\n      swap1\n      pop\n        /* \"#utility.yul\":7:84   */\n      swap2\n      swap1\n      pop\n      jump\t// out\n        /* \"#utility.yul\":90:208   */\n    tag_57:\n        /* \"#utility.yul\":177:201   */\n      tag_83\n        /* \"#utility.yul\":195:200   */\n      dup2\n        /* \"#utility.yul\":177:201   */\n      tag_56\n      jump\t// in\n    tag_83:\n        /* \"#utility.yul\":172:175   */\n      dup3\n        /* \"#utility.yul\":165:202   */\n      mstore\n        /* \"#utility.yul\":90:208   */\n      pop\n      pop\n      jump\t// out\n        /* \"#utility.yul\":214:436   */\n    tag_12:\n        /* \"#utility.yul\":307:311   */\n      0x00\n        /* \"#utility.yul\":345:347   */\n      0x20\n        /* \"#utility.yul\":334:343   */\n      dup3\n        /* \"#utility.yul\":330:348   */\n      add\n        /* \"#utility.yul\":322:348   */\n      swap1\n      pop\n        /* \"#utility.yul\":358:429   */\n      tag_85\n        /* \"#utility.yul\":426:427   */\n      0x00\n        /* \"#utility.yul\":415:424   */\n      dup4\n        /* \"#utility.yul\":411:428   */\n      add\n        /* \"#utility.yul\":402:408   */\n      dup5\n        /* \"#utility.yul\":358:429   */\n      tag_57\n      jump\t// in\n    tag_85:\n        /* \"#utility.yul\":214:436   */\n      swap3\n      swap2\n      pop\n      pop\n      jump\t// out\n        /* \"#utility.yul\":523:640   */\n    tag_59:\n        /* \"#utility.yul\":632:633   */\n      0x00\n        /* \"#utility.yul\":629:630   */\n      dup1\n        /* \"#utility.yul\":622:634   */\n      revert\n        /* \"#utility.yul\":769:895   */\n    tag_61:\n        /* \"#utility.yul\":806:813   */\n      0x00\n        /* \"#utility.yul\":846:888   */\n      0xffffffffffffffffffffffffffffffffffffffff\n        /* \"#utility.yul\":839:844   */\n      dup3\n        /* \"#utility.yul\":835:889   */\n      and\n        /* \"#utility.yul\":824:889   */\n      swap1\n      pop\n        /* \"#utility.yul\":769:895   */\n      swap2\n      swap1\n      pop\n      jump\t// out\n        /* \"#utility.yul\":901:997   */\n    tag_62:\n        /* \"#utility.yul\":938:945   */\n      0x00\n        /* \"#utility.yul\":967:991   */\n      tag_91\n        /* \"#utility.yul\":985:990   */\n      dup3\n        /* \"#utility.yul\":967:991   */\n      tag_61\n      jump\t// in\n    tag_91:\n        /* \"#utility.yul\":956:991   */\n      swap1\n      pop\n        /* \"#utility.yul\":901:997   */\n      swap2\n      swap1\n      pop\n      jump\t// out\n        /* \"#utility.yul\":1003:1125   */\n    tag_63:\n        /* \"#utility.yul\":1076:1100   */\n      tag_93\n        /* \"#utility.yul\":1094:1099   */\n      dup2\n        /* \"#utility.yul\":1076:1100   */\n      tag_62\n      jump\t// in\n    tag_93:\n        /* \"#utility.yul\":1069:1074   */\n      dup2\n        /* \"#utility.yul\":1066:1101   */\n      eq\n        /* \"#utility.yul\":1056:1119   */\n      tag_94\n      jumpi\n        /* \"#utility.yul\":1115:1116   */\n      0x00\n        /* \"#utility.yul\":1112:1113   */\n      dup1\n        /* \"#utility.yul\":1105:1117   */\n      revert\n        /* \"#utility.yul\":1056:1119   */\n    tag_94:\n        /* \"#utility.yul\":1003:1125   */\n      pop\n      jump\t// out\n        /* \"#utility.yul\":1131:1270   */\n    tag_64:\n        /* \"#utility.yul\":1177:1182   */\n      0x00\n        /* \"#utility.yul\":1215:1221   */\n      dup2\n        /* \"#utility.yul\":1202:1222   */\n      calldataload\n        /* \"#utility.yul\":1193:1222   */\n      swap1\n      pop\n        /* \"#utility.yul\":1231:1264   */\n      tag_96\n        /* \"#utility.yul\":1258:1263   */\n      dup2\n        /* \"#utility.yul\":1231:1264   */\n      tag_63\n      jump\t// in\n    tag_96:\n        /* \"#utility.yul\":1131:1270   */\n      swap3\n      swap2\n      pop\n      pop\n      jump\t// out\n        /* \"#utility.yul\":1276:1605   */\n    tag_16:\n        /* \"#utility.yul\":1335:1341   */\n      0x00\n        /* \"#utility.yul\":1384:1386   */\n      0x20\n        /* \"#utility.yul\":1372:1381   */\n      dup3\n        /* \"#utility.yul\":1363:1370   */\n      dup5\n        /* \"#utility.yul\":1359:1382   */\n      sub\n        /* \"#utility.yul\":1355:1387   */\n      slt\n        /* \"#utility.yul\":1352:1471   */\n      iszero\n      tag_98\n      jumpi\n        /* \"#utility.yul\":1390:1469   */\n      tag_99\n      tag_59\n      jump\t// in\n    tag_99:\n        /* \"#utility.yul\":1352:1471   */\n    tag_98:\n        /* \"#utility.yul\":1510:1511   */\n      0x00\n        /* \"#utility.yul\":1535:1588   */\n      tag_100\n        /* \"#utility.yul\":1580:1587   */\n      dup5\n        /* \"#utility.yul\":1571:1577   */\n      dup3\n        /* \"#utility.yul\":1560:1569   */\n      dup6\n        /* \"#utility.yul\":1556:1578   */\n      add\n        /* \"#utility.yul\":1535:1588   */\n      tag_64\n      jump\t// in\n    tag_100:\n        /* \"#utility.yul\":1525:1588   */\n      swap2\n      pop\n        /* \"#utility.yul\":1481:1598   */\n      pop\n        /* \"#utility.yul\":1276:1605   */\n      swap3\n      swap2\n      pop\n      pop\n      jump\t// out\n        /* \"#utility.yul\":1611:1733   */\n    tag_65:\n        /* \"#utility.yul\":1684:1708   */\n      tag_102\n        /* \"#utility.yul\":1702:1707   */\n      dup2\n        /* \"#utility.yul\":1684:1708   */\n      tag_56\n      jump\t// in\n    tag_102:\n        /* \"#utility.yul\":1677:1682   */\n      dup2\n        /* \"#utility.yul\":1674:1709   */\n      eq\n        /* \"#utility.yul\":1664:1727   */\n      tag_103\n      jumpi\n        /* \"#utility.yul\":1723:1724   */\n      0x00\n        /* \"#utility.yul\":1720:1721   */\n      dup1\n        /* \"#utility.yul\":1713:1725   */\n      revert\n        /* \"#utility.yul\":1664:1727   */\n    tag_103:\n        /* \"#utility.yul\":1611:1733   */\n      pop\n      jump\t// out\n        /* \"#utility.yul\":1739:1878   */\n    tag_66:\n        /* \"#utility.yul\":1785:1790   */\n      0x00\n        /* \"#utility.yul\":1823:1829   */\n      dup2\n        /* \"#utility.yul\":1810:1830   */\n      calldataload\n        /* \"#utility.yul\":1801:1830   */\n      swap1\n      pop\n        /* \"#utility.yul\":1839:1872   */\n      tag_105\n        /* \"#utility.yul\":1866:1871   */\n      dup2\n        /* \"#utility.yul\":1839:1872   */\n      tag_65\n      jump\t// in\n    tag_105:\n        /* \"#utility.yul\":1739:1878   */\n      swap3\n      swap2\n      pop\n      pop\n      jump\t// out\n        /* \"#utility.yul\":1884:2213   */\n    tag_22:\n        /* \"#utility.yul\":1943:1949   */\n      0x00\n        /* \"#utility.yul\":1992:1994   */\n      0x20\n        /* \"#utility.yul\":1980:1989   */\n      dup3\n        /* \"#utility.yul\":1971:1978   */\n      dup5\n        /* \"#utility.yul\":1967:1990   */\n      sub\n        /* \"#utility.yul\":1963:1995   */\n      slt\n        /* \"#utility.yul\":1960:2079   */\n      iszero\n      tag_107\n      jumpi\n        /* \"#utility.yul\":1998:2077   */\n      tag_108\n      tag_59\n      jump\t// in\n    tag_108:\n        /* \"#utility.yul\":1960:2079   */\n    tag_107:\n        /* \"#utility.yul\":2118:2119   */\n      0x00\n        /* \"#utility.yul\":2143:2196   */\n      tag_109\n        /* \"#utility.yul\":2188:2195   */\n      dup5\n        /* \"#utility.yul\":2179:2185   */\n      dup3\n        /* \"#utility.yul\":2168:2177   */\n      dup6\n        /* \"#utility.yul\":2164:2186   */\n      add\n        /* \"#utility.yul\":2143:2196   */\n      tag_66\n      jump\t// in\n    tag_109:\n        /* \"#utility.yul\":2133:2196   */\n      swap2\n      pop\n        /* \"#utility.yul\":2089:2206   */\n      pop\n        /* \"#utility.yul\":1884:2213   */\n      swap3\n      swap2\n      pop\n      pop\n      jump\t// out\n        /* \"#utility.yul\":2219:2337   */\n    tag_67:\n        /* \"#utility.yul\":2306:2330   */\n      tag_111\n        /* \"#utility.yul\":2324:2329   */\n      dup2\n        /* \"#utility.yul\":2306:2330   */\n      tag_62\n      jump\t// in\n    tag_111:\n        /* \"#utility.yul\":2301:2304   */\n      dup3\n        /* \"#utility.yul\":2294:2331   */\n      mstore\n        /* \"#utility.yul\":2219:2337   */\n      pop\n      pop\n      jump\t// out\n        /* \"#utility.yul\":2343:2565   */\n    tag_36:\n        /* \"#utility.yul\":2436:2440   */\n      0x00\n        /* \"#utility.yul\":2474:2476   */\n      0x20\n        /* \"#utility.yul\":2463:2472   */\n      dup3\n        /* \"#utility.yul\":2459:2477   */\n      add\n        /* \"#utility.yul\":2451:2477   */\n      swap1\n      pop\n        /* \"#utility.yul\":2487:2558   */\n      tag_113\n        /* \"#utility.yul\":2555:2556   */\n      0x00\n        /* \"#utility.yul\":2544:2553   */\n      dup4\n        /* \"#utility.yul\":2540:2557   */\n      add\n        /* \"#utility.yul\":2531:2537   */\n      dup5\n        /* \"#utility.yul\":2487:2558   */\n      tag_67\n      jump\t// in\n    tag_113:\n        /* \"#utility.yul\":2343:2565   */\n      swap3\n      swap2\n      pop\n      pop\n      jump\t// out\n        /* \"#utility.yul\":2571:2751   */\n    tag_68:\n        /* \"#utility.yul\":2619:2696   */\n      0x4e487b7100000000000000000000000000000000000000000000000000000000\n        /* \"#utility.yul\":2616:2617   */\n      0x00\n        /* \"#utility.yul\":2609:2697   */\n      mstore\n        /* \"#utility.yul\":2716:2720   */\n      0x11\n        /* \"#utility.yul\":2713:2714   */\n      0x04\n        /* \"#utility.yul\":2706:2721   */\n      mstore\n        /* \"#utility.yul\":2740:2744   */\n      0x24\n        /* \"#utility.yul\":2737:2738   */\n      0x00\n        /* \"#utility.yul\":2730:2745   */\n      revert\n        /* \"#utility.yul\":2757:3105   */\n    tag_40:\n        /* \"#utility.yul\":2797:2804   */\n      0x00\n        /* \"#utility.yul\":2820:2840   */\n      tag_116\n        /* \"#utility.yul\":2838:2839   */\n      dup3\n        /* \"#utility.yul\":2820:2840   */\n      tag_56\n      jump\t// in\n    tag_116:\n        /* \"#utility.yul\":2815:2840   */\n      swap2\n      pop\n        /* \"#utility.yul\":2854:2874   */\n      tag_117\n        /* \"#utility.yul\":2872:2873   */\n      dup4\n        /* \"#utility.yul\":2854:2874   */\n      tag_56\n      jump\t// in\n    tag_117:\n        /* \"#utility.yul\":2849:2874   */\n      swap3\n      pop\n        /* \"#utility.yul\":3042:3043   */\n      dup2\n        /* \"#utility.yul\":2974:3040   */\n      0xffffffffffffffffffffffffffffffffffffffffffffffffffffffffffffffff\n        /* \"#utility.yul\":2970:3044   */\n      div\n        /* \"#utility.yul\":2967:2968   */\n      dup4\n        /* \"#utility.yul\":2964:3045   */\n      gt\n        /* \"#utility.yul\":2959:2960   */\n      dup3\n        /* \"#utility.yul\":2952:2961   */\n      iszero\n        /* \"#utility.yul\":2945:2962   */\n      iszero\n        /* \"#utility.yul\":2941:3046   */\n      and\n        /* \"#utility.yul\":2938:3069   */\n      iszero\n      tag_118\n      jumpi\n        /* \"#utility.yul\":3049:3067   */\n      tag_119\n      tag_68\n      jump\t// in\n    tag_119:\n        /* \"#utility.yul\":2938:3069   */\n    tag_118:\n        /* \"#utility.yul\":3097:3098   */\n      dup3\n        /* \"#utility.yul\":3094:3095   */\n      dup3\n        /* \"#utility.yul\":3090:3099   */\n      mul\n        /* \"#utility.yul\":3079:3099   */\n      swap1\n      pop\n        /* \"#utility.yul\":2757:3105   */\n      swap3\n      swap2\n      pop\n      pop\n      jump\t// out\n        /* \"#utility.yul\":3111:3291   */\n    tag_69:\n        /* \"#utility.yul\":3159:3236   */\n      0x4e487b7100000000000000000000000000000000000000000000000000000000\n        /* \"#utility.yul\":3156:3157   */\n      0x00\n        /* \"#utility.yul\":3149:3237   */\n      mstore\n        /* \"#utility.yul\":3256:3260   */\n      0x12\n        /* \"#utility.yul\":3253:3254   */\n      0x04\n        /* \"#utility.yul\":3246:3261   */\n      mstore\n        /* \"#utility.yul\":3280:3284   */\n      0x24\n        /* \"#utility.yul\":3277:3278   */\n      0x00\n        /* \"#utility.yul\":3270:3285   */\n      revert\n        /* \"#utility.yul\":3297:3482   */\n    tag_42:\n        /* \"#utility.yul\":3337:3338   */\n      0x00\n        /* \"#utility.yul\":3354:3374   */\n      tag_122\n        /* \"#utility.yul\":3372:3373   */\n      dup3\n        /* \"#utility.yul\":3354:3374   */\n      tag_56\n      jump\t// in\n    tag_122:\n        /* \"#utility.yul\":3349:3374   */\n      swap2\n      pop\n        /* \"#utility.yul\":3388:3408   */\n      tag_123\n        /* \"#utility.yul\":3406:3407   */\n      dup4\n        /* \"#utility.yul\":3388:3408   */\n      tag_56\n      jump\t// in\n    tag_123:\n        /* \"#utility.yul\":3383:3408   */\n      swap3\n      pop\n        /* \"#utility.yul\":3427:3428   */\n      dup3\n        /* \"#utility.yul\":3417:3452   */\n      tag_124\n      jumpi\n        /* \"#utility.yul\":3432:3450   */\n      tag_125\n      tag_69\n      jump\t// in\n    tag_125:\n        /* \"#utility.yul\":3417:3452   */\n    tag_124:\n        /* \"#utility.yul\":3474:3475   */\n      dup3\n        /* \"#utility.yul\":3471:3472   */\n      dup3\n        /* \"#utility.yul\":3467:3476   */\n      div\n        /* \"#utility.yul\":3462:3476   */\n      swap1\n      pop\n        /* \"#utility.yul\":3297:3482   */\n      swap3\n      swap2\n      pop\n      pop\n      jump\t// out\n        /* \"#utility.yul\":3488:3593   */\n    tag_70:\n        /* \"#utility.yul\":3524:3531   */\n      0x00\n        /* \"#utility.yul\":3564:3586   */\n      0xffffffffffffffffffff\n        /* \"#utility.yul\":3557:3562   */\n      dup3\n        /* \"#utility.yul\":3553:3587   */\n      and\n        /* \"#utility.yul\":3542:3587   */\n      swap1\n      pop\n        /* \"#utility.yul\":3488:3593   */\n      swap2\n      swap1\n      pop\n      jump\t// out\n        /* \"#utility.yul\":3599:3719   */\n    tag_71:\n        /* \"#utility.yul\":3671:3694   */\n      tag_128\n        /* \"#utility.yul\":3688:3693   */\n      dup2\n        /* \"#utility.yul\":3671:3694   */\n      tag_70\n      jump\t// in\n    tag_128:\n        /* \"#utility.yul\":3664:3669   */\n      dup2\n        /* \"#utility.yul\":3661:3695   */\n      eq\n        /* \"#utility.yul\":3651:3713   */\n      tag_129\n      jumpi\n        /* \"#utility.yul\":3709:3710   */\n      0x00\n        /* \"#utility.yul\":3706:3707   */\n      dup1\n        /* \"#utility.yul\":3699:3711   */\n      revert\n        /* \"#utility.yul\":3651:3713   */\n    tag_129:\n        /* \"#utility.yul\":3599:3719   */\n      pop\n      jump\t// out\n        /* \"#utility.yul\":3725:3866   */\n    tag_72:\n        /* \"#utility.yul\":3781:3786   */\n      0x00\n        /* \"#utility.yul\":3812:3818   */\n      dup2\n        /* \"#utility.yul\":3806:3819   */\n      mload\n        /* \"#utility.yul\":3797:3819   */\n      swap1\n      pop\n        /* \"#utility.yul\":3828:3860   */\n      tag_131\n        /* \"#utility.yul\":3854:3859   */\n      dup2\n        /* \"#utility.yul\":3828:3860   */\n      tag_71\n      jump\t// in\n    tag_131:\n        /* \"#utility.yul\":3725:3866   */\n      swap3\n      swap2\n      pop\n      pop\n      jump\t// out\n        /* \"#utility.yul\":3872:3948   */\n    tag_73:\n        /* \"#utility.yul\":3908:3915   */\n      0x00\n        /* \"#utility.yul\":3937:3942   */\n      dup2\n        /* \"#utility.yul\":3926:3942   */\n      swap1\n      pop\n        /* \"#utility.yul\":3872:3948   */\n      swap2\n      swap1\n      pop\n      jump\t// out\n        /* \"#utility.yul\":3954:4074   */\n    tag_74:\n        /* \"#utility.yul\":4026:4049   */\n      tag_134\n        /* \"#utility.yul\":4043:4048   */\n      dup2\n        /* \"#utility.yul\":4026:4049   */\n      tag_73\n      jump\t// in\n    tag_134:\n        /* \"#utility.yul\":4019:4024   */\n      dup2\n        /* \"#utility.yul\":4016:4050   */\n      eq\n        /* \"#utility.yul\":4006:4068   */\n      tag_135\n      jumpi\n        /* \"#utility.yul\":4064:4065   */\n      0x00\n        /* \"#utility.yul\":4061:4062   */\n      dup1\n        /* \"#utility.yul\":4054:4066   */\n      revert\n        /* \"#utility.yul\":4006:4068   */\n    tag_135:\n        /* \"#utility.yul\":3954:4074   */\n      pop\n      jump\t// out\n        /* \"#utility.yul\":4080:4221   */\n    tag_75:\n        /* \"#utility.yul\":4136:4141   */\n      0x00\n        /* \"#utility.yul\":4167:4173   */\n      dup2\n        /* \"#utility.yul\":4161:4174   */\n      mload\n        /* \"#utility.yul\":4152:4174   */\n      swap1\n      pop\n        /* \"#utility.yul\":4183:4215   */\n      tag_137\n        /* \"#utility.yul\":4209:4214   */\n      dup2\n        /* \"#utility.yul\":4183:4215   */\n      tag_74\n      jump\t// in\n    tag_137:\n        /* \"#utility.yul\":4080:4221   */\n      swap3\n      swap2\n      pop\n      pop\n      jump\t// out\n        /* \"#utility.yul\":4227:4370   */\n    tag_76:\n        /* \"#utility.yul\":4284:4289   */\n      0x00\n        /* \"#utility.yul\":4315:4321   */\n      dup2\n        /* \"#utility.yul\":4309:4322   */\n      mload\n        /* \"#utility.yul\":4300:4322   */\n      swap1\n      pop\n        /* \"#utility.yul\":4331:4364   */\n      tag_139\n        /* \"#utility.yul\":4358:4363   */\n      dup2\n        /* \"#utility.yul\":4331:4364   */\n      tag_65\n      jump\t// in\n    tag_139:\n        /* \"#utility.yul\":4227:4370   */\n      swap3\n      swap2\n      pop\n      pop\n      jump\t// out\n        /* \"#utility.yul\":4376:5347   */\n    tag_47:\n        /* \"#utility.yul\":4479:4485   */\n      0x00\n        /* \"#utility.yul\":4487:4493   */\n      dup1\n        /* \"#utility.yul\":4495:4501   */\n      0x00\n        /* \"#utility.yul\":4503:4509   */\n      dup1\n        /* \"#utility.yul\":4511:4517   */\n      0x00\n        /* \"#utility.yul\":4560:4563   */\n      0xa0\n        /* \"#utility.yul\":4548:4557   */\n      dup7\n        /* \"#utility.yul\":4539:4546   */\n      dup9\n        /* \"#utility.yul\":4535:4558   */\n      sub\n        /* \"#utility.yul\":4531:4564   */\n      slt\n        /* \"#utility.yul\":4528:4648   */\n      iszero\n      tag_141\n      jumpi\n        /* \"#utility.yul\":4567:4646   */\n      tag_142\n      tag_59\n      jump\t// in\n    tag_142:\n        /* \"#utility.yul\":4528:4648   */\n    tag_141:\n        /* \"#utility.yul\":4687:4688   */\n      0x00\n        /* \"#utility.yul\":4712:4775   */\n      tag_143\n        /* \"#utility.yul\":4767:4774   */\n      dup9\n        /* \"#utility.yul\":4758:4764   */\n      dup3\n        /* \"#utility.yul\":4747:4756   */\n      dup10\n        /* \"#utility.yul\":4743:4765   */\n      add\n        /* \"#utility.yul\":4712:4775   */\n      tag_72\n      jump\t// in\n    tag_143:\n        /* \"#utility.yul\":4702:4775   */\n      swap6\n      pop\n        /* \"#utility.yul\":4658:4785   */\n      pop\n        /* \"#utility.yul\":4824:4826   */\n      0x20\n        /* \"#utility.yul\":4850:4913   */\n      tag_144\n        /* \"#utility.yul\":4905:4912   */\n      dup9\n        /* \"#utility.yul\":4896:4902   */\n      dup3\n        /* \"#utility.yul\":4885:4894   */\n      dup10\n        /* \"#utility.yul\":4881:4903   */\n      add\n        /* \"#utility.yul\":4850:4913   */\n      tag_75\n      jump\t// in\n    tag_144:\n        /* \"#utility.yul\":4840:4913   */\n      swap5\n      pop\n        /* \"#utility.yul\":4795:4923   */\n      pop\n        /* \"#utility.yul\":4962:4964   */\n      0x40\n        /* \"#utility.yul\":4988:5052   */\n      tag_145\n        /* \"#utility.yul\":5044:5051   */\n      dup9\n        /* \"#utility.yul\":5035:5041   */\n      dup3\n        /* \"#utility.yul\":5024:5033   */\n      dup10\n        /* \"#utility.yul\":5020:5042   */\n      add\n        /* \"#utility.yul\":4988:5052   */\n      tag_76\n      jump\t// in\n    tag_145:\n        /* \"#utility.yul\":4978:5052   */\n      swap4\n      pop\n        /* \"#utility.yul\":4933:5062   */\n      pop\n        /* \"#utility.yul\":5101:5103   */\n      0x60\n        /* \"#utility.yul\":5127:5191   */\n      tag_146\n        /* \"#utility.yul\":5183:5190   */\n      dup9\n        /* \"#utility.yul\":5174:5180   */\n      dup3\n        /* \"#utility.yul\":5163:5172   */\n      dup10\n        /* \"#utility.yul\":5159:5181   */\n      add\n        /* \"#utility.yul\":5127:5191   */\n      tag_76\n      jump\t// in\n    tag_146:\n        /* \"#utility.yul\":5117:5191   */\n      swap3\n      pop\n        /* \"#utility.yul\":5072:5201   */\n      pop\n        /* \"#utility.yul\":5240:5243   */\n      0x80\n        /* \"#utility.yul\":5267:5330   */\n      tag_147\n        /* \"#utility.yul\":5322:5329   */\n      dup9\n        /* \"#utility.yul\":5313:5319   */\n      dup3\n        /* \"#utility.yul\":5302:5311   */\n      dup10\n        /* \"#utility.yul\":5298:5320   */\n      add\n        /* \"#utility.yul\":5267:5330   */\n      tag_72\n      jump\t// in\n    tag_147:\n        /* \"#utility.yul\":5257:5330   */\n      swap2\n      pop\n        /* \"#utility.yul\":5211:5340   */\n      pop\n        /* \"#utility.yul\":4376:5347   */\n      swap3\n      swap6\n      pop\n      swap3\n      swap6\n      swap1\n      swap4\n      pop\n      jump\t// out\n        /* \"#utility.yul\":5353:6344   */\n    tag_49:\n        /* \"#utility.yul\":5392:5399   */\n      0x00\n        /* \"#utility.yul\":5415:5434   */\n      tag_149\n        /* \"#utility.yul\":5432:5433   */\n      dup3\n        /* \"#utility.yul\":5415:5434   */\n      tag_73\n      jump\t// in\n    tag_149:\n        /* \"#utility.yul\":5410:5434   */\n      swap2\n      pop\n        /* \"#utility.yul\":5448:5467   */\n      tag_150\n        /* \"#utility.yul\":5465:5466   */\n      dup4\n        /* \"#utility.yul\":5448:5467   */\n      tag_73\n      jump\t// in\n    tag_150:\n        /* \"#utility.yul\":5443:5467   */\n      swap3\n      pop\n        /* \"#utility.yul\":5649:5650   */\n      dup3\n        /* \"#utility.yul\":5581:5647   */\n      0x7fffffffffffffffffffffffffffffffffffffffffffffffffffffffffffffff\n        /* \"#utility.yul\":5577:5651   */\n      div\n        /* \"#utility.yul\":5574:5575   */\n      dup3\n        /* \"#utility.yul\":5571:5652   */\n      gt\n        /* \"#utility.yul\":5566:5567   */\n      0x00\n        /* \"#utility.yul\":5563:5564   */\n      dup5\n        /* \"#utility.yul\":5559:5568   */\n      sgt\n        /* \"#utility.yul\":5555:5556   */\n      0x00\n        /* \"#utility.yul\":5552:5553   */\n      dup5\n        /* \"#utility.yul\":5548:5557   */\n      sgt\n        /* \"#utility.yul\":5544:5569   */\n      and\n        /* \"#utility.yul\":5540:5653   */\n      and\n        /* \"#utility.yul\":5537:5676   */\n      iszero\n      tag_151\n      jumpi\n        /* \"#utility.yul\":5656:5674   */\n      tag_152\n      tag_68\n      jump\t// in\n    tag_152:\n        /* \"#utility.yul\":5537:5676   */\n    tag_151:\n        /* \"#utility.yul\":5860:5861   */\n      dup2\n        /* \"#utility.yul\":5792:5858   */\n      0x8000000000000000000000000000000000000000000000000000000000000000\n        /* \"#utility.yul\":5787:5862   */\n      sdiv\n        /* \"#utility.yul\":5784:5785   */\n      dup4\n        /* \"#utility.yul\":5780:5863   */\n      slt\n        /* \"#utility.yul\":5775:5776   */\n      0x00\n        /* \"#utility.yul\":5772:5773   */\n      dup5\n        /* \"#utility.yul\":5768:5777   */\n      slt\n        /* \"#utility.yul\":5764:5765   */\n      0x00\n        /* \"#utility.yul\":5761:5762   */\n      dup5\n        /* \"#utility.yul\":5757:5766   */\n      sgt\n        /* \"#utility.yul\":5753:5778   */\n      and\n        /* \"#utility.yul\":5749:5864   */\n      and\n        /* \"#utility.yul\":5746:5887   */\n      iszero\n      tag_153\n      jumpi\n        /* \"#utility.yul\":5867:5885   */\n      tag_154\n      tag_68\n      jump\t// in\n    tag_154:\n        /* \"#utility.yul\":5746:5887   */\n    tag_153:\n        /* \"#utility.yul\":6071:6072   */\n      dup3\n        /* \"#utility.yul\":6003:6069   */\n      0x8000000000000000000000000000000000000000000000000000000000000000\n        /* \"#utility.yul\":5998:6073   */\n      sdiv\n        /* \"#utility.yul\":5995:5996   */\n      dup3\n        /* \"#utility.yul\":5991:6074   */\n      slt\n        /* \"#utility.yul\":5986:5987   */\n      0x00\n        /* \"#utility.yul\":5983:5984   */\n      dup5\n        /* \"#utility.yul\":5979:5988   */\n      sgt\n        /* \"#utility.yul\":5975:5976   */\n      0x00\n        /* \"#utility.yul\":5972:5973   */\n      dup5\n        /* \"#utility.yul\":5968:5977   */\n      slt\n        /* \"#utility.yul\":5964:5989   */\n      and\n        /* \"#utility.yul\":5960:6075   */\n      and\n        /* \"#utility.yul\":5957:6098   */\n      iszero\n      tag_155\n      jumpi\n        /* \"#utility.yul\":6078:6096   */\n      tag_156\n      tag_68\n      jump\t// in\n    tag_156:\n        /* \"#utility.yul\":5957:6098   */\n    tag_155:\n        /* \"#utility.yul\":6281:6282   */\n      dup3\n        /* \"#utility.yul\":6213:6279   */\n      0x7fffffffffffffffffffffffffffffffffffffffffffffffffffffffffffffff\n        /* \"#utility.yul\":6208:6283   */\n      sdiv\n        /* \"#utility.yul\":6205:6206   */\n      dup3\n        /* \"#utility.yul\":6201:6284   */\n      slt\n        /* \"#utility.yul\":6196:6197   */\n      0x00\n        /* \"#utility.yul\":6193:6194   */\n      dup5\n        /* \"#utility.yul\":6189:6198   */\n      slt\n        /* \"#utility.yul\":6185:6186   */\n      0x00\n        /* \"#utility.yul\":6182:6183   */\n      dup5\n        /* \"#utility.yul\":6178:6187   */\n      slt\n        /* \"#utility.yul\":6174:6199   */\n      and\n        /* \"#utility.yul\":6170:6285   */\n      and\n        /* \"#utility.yul\":6167:6308   */\n      iszero\n      tag_157\n      jumpi\n        /* \"#utility.yul\":6288:6306   */\n      tag_158\n      tag_68\n      jump\t// in\n    tag_158:\n        /* \"#utility.yul\":6167:6308   */\n    tag_157:\n        /* \"#utility.yul\":6336:6337   */\n      dup3\n        /* \"#utility.yul\":6333:6334   */\n      dup3\n        /* \"#utility.yul\":6329:6338   */\n      mul\n        /* \"#utility.yul\":6318:6338   */\n      swap1\n      pop\n        /* \"#utility.yul\":5353:6344   */\n      swap3\n      swap2\n      pop\n      pop\n      jump\t// out\n        /* \"#utility.yul\":6350:6519   */\n    tag_77:\n        /* \"#utility.yul\":6434:6445   */\n      0x00\n        /* \"#utility.yul\":6468:6474   */\n      dup3\n        /* \"#utility.yul\":6463:6466   */\n      dup3\n        /* \"#utility.yul\":6456:6475   */\n      mstore\n        /* \"#utility.yul\":6508:6512   */\n      0x20\n        /* \"#utility.yul\":6503:6506   */\n      dup3\n        /* \"#utility.yul\":6499:6513   */\n      add\n        /* \"#utility.yul\":6484:6513   */\n      swap1\n      pop\n        /* \"#utility.yul\":6350:6519   */\n      swap3\n      swap2\n      pop\n      pop\n      jump\t// out\n        /* \"#utility.yul\":6525:6749   */\n    tag_78:\n        /* \"#utility.yul\":6665:6699   */\n      0x4d696e696d756e20726571756972656420616d6f756e74206e6f742066756c66\n        /* \"#utility.yul\":6661:6662   */\n      0x00\n        /* \"#utility.yul\":6653:6659   */\n      dup3\n        /* \"#utility.yul\":6649:6663   */\n      add\n        /* \"#utility.yul\":6642:6700   */\n      mstore\n        /* \"#utility.yul\":6734:6741   */\n      0x696c6c6564000000000000000000000000000000000000000000000000000000\n        /* \"#utility.yul\":6729:6731   */\n      0x20\n        /* \"#utility.yul\":6721:6727   */\n      dup3\n        /* \"#utility.yul\":6717:6732   */\n      add\n        /* \"#utility.yul\":6710:6742   */\n      mstore\n        /* \"#utility.yul\":6525:6749   */\n      pop\n      jump\t// out\n        /* \"#utility.yul\":6755:7121   */\n    tag_79:\n        /* \"#utility.yul\":6897:6900   */\n      0x00\n        /* \"#utility.yul\":6918:6985   */\n      tag_162\n        /* \"#utility.yul\":6982:6984   */\n      0x25\n        /* \"#utility.yul\":6977:6980   */\n      dup4\n        /* \"#utility.yul\":6918:6985   */\n      tag_77\n      jump\t// in\n    tag_162:\n        /* \"#utility.yul\":6911:6985   */\n      swap2\n      pop\n        /* \"#utility.yul\":6994:7087   */\n      tag_163\n        /* \"#utility.yul\":7083:7086   */\n      dup3\n        /* \"#utility.yul\":6994:7087   */\n      tag_78\n      jump\t// in\n    tag_163:\n        /* \"#utility.yul\":7112:7114   */\n      0x40\n        /* \"#utility.yul\":7107:7110   */\n      dup3\n        /* \"#utility.yul\":7103:7115   */\n      add\n        /* \"#utility.yul\":7096:7115   */\n      swap1\n      pop\n        /* \"#utility.yul\":6755:7121   */\n      swap2\n      swap1\n      pop\n      jump\t// out\n        /* \"#utility.yul\":7127:7546   */\n    tag_53:\n        /* \"#utility.yul\":7293:7297   */\n      0x00\n        /* \"#utility.yul\":7331:7333   */\n      0x20\n        /* \"#utility.yul\":7320:7329   */\n      dup3\n        /* \"#utility.yul\":7316:7334   */\n      add\n        /* \"#utility.yul\":7308:7334   */\n      swap1\n      pop\n        /* \"#utility.yul\":7380:7389   */\n      dup2\n        /* \"#utility.yul\":7374:7378   */\n      dup2\n        /* \"#utility.yul\":7370:7390   */\n      sub\n        /* \"#utility.yul\":7366:7367   */\n      0x00\n        /* \"#utility.yul\":7355:7364   */\n      dup4\n        /* \"#utility.yul\":7351:7368   */\n      add\n        /* \"#utility.yul\":7344:7391   */\n      mstore\n        /* \"#utility.yul\":7408:7539   */\n      tag_165\n        /* \"#utility.yul\":7534:7538   */\n      dup2\n        /* \"#utility.yul\":7408:7539   */\n      tag_79\n      jump\t// in\n    tag_165:\n        /* \"#utility.yul\":7400:7539   */\n      swap1\n      pop\n        /* \"#utility.yul\":7127:7546   */\n      swap2\n      swap1\n      pop\n      jump\t// out\n\n    auxdata: 0xa264697066735822122036690428106ba18caf8f03853f3f48a84c10c11592b2dcb8e45f072a4cd88ca264736f6c63430008100033\n}\n",
				"bytecode": {
					"linkReferences": {},
					"object": "6080604052603260005534801561001557600080fd5b50610820806100256000396000f3fe6080604052600436106100555760003560e01c80633430a88c1461005a5780633e47d6f3146100855780636e5b6b28146100c257806398d5fdca146100ff578063b60d42881461012a578063dc0d3dff14610134575b600080fd5b34801561006657600080fd5b5061006f610171565b60405161007c9190610311565b60405180910390f35b34801561009157600080fd5b506100ac60048036038101906100a7919061038f565b610177565b6040516100b99190610311565b60405180910390f35b3480156100ce57600080fd5b506100e960048036038101906100e491906103e8565b61018f565b6040516100f69190610311565b60405180910390f35b34801561010b57600080fd5b506101146101c9565b6040516101219190610311565b60405180910390f35b610132610272565b005b34801561014057600080fd5b5061015b600480360381019061015691906103e8565b6102b9565b6040516101689190610424565b60405180910390f35b60005481565b60026020528060005260406000206000915090505481565b60008061019a6101c9565b90506000670de0b6b3a764000084836101b3919061046e565b6101bd91906104f7565b90508092505050919050565b600080738a753747a1fa494ec906ce90e9f37563a8af630e905060008173ffffffffffffffffffffffffffffffffffffffff1663feaf968c6040518163ffffffff1660e01b815260040160a060405180830381865afa158015610230573d6000803e3d6000fd5b505050506040513d601f19601f8201168201806040525081019061025491906105b5565b5050509150506402540be4008161026b9190610630565b9250505090565b6000543410156102b7576040517f08c379a00000000000000000000000000000000000000000000000000000000081526004016102ae906107ca565b60405180910390fd5b565b600181815481106102c957600080fd5b906000526020600020016000915054906101000a900473ffffffffffffffffffffffffffffffffffffffff1681565b6000819050919050565b61030b816102f8565b82525050565b60006020820190506103266000830184610302565b92915050565b600080fd5b600073ffffffffffffffffffffffffffffffffffffffff82169050919050565b600061035c82610331565b9050919050565b61036c81610351565b811461037757600080fd5b50565b60008135905061038981610363565b92915050565b6000602082840312156103a5576103a461032c565b5b60006103b38482850161037a565b91505092915050565b6103c5816102f8565b81146103d057600080fd5b50565b6000813590506103e2816103bc565b92915050565b6000602082840312156103fe576103fd61032c565b5b600061040c848285016103d3565b91505092915050565b61041e81610351565b82525050565b60006020820190506104396000830184610415565b92915050565b7f4e487b7100000000000000000000000000000000000000000000000000000000600052601160045260246000fd5b6000610479826102f8565b9150610484836102f8565b9250817fffffffffffffffffffffffffffffffffffffffffffffffffffffffffffffffff04831182151516156104bd576104bc61043f565b5b828202905092915050565b7f4e487b7100000000000000000000000000000000000000000000000000000000600052601260045260246000fd5b6000610502826102f8565b915061050d836102f8565b92508261051d5761051c6104c8565b5b828204905092915050565b600069ffffffffffffffffffff82169050919050565b61054781610528565b811461055257600080fd5b50565b6000815190506105648161053e565b92915050565b6000819050919050565b61057d8161056a565b811461058857600080fd5b50565b60008151905061059a81610574565b92915050565b6000815190506105af816103bc565b92915050565b600080600080600060a086880312156105d1576105d061032c565b5b60006105df88828901610555565b95505060206105f08882890161058b565b9450506040610601888289016105a0565b9350506060610612888289016105a0565b925050608061062388828901610555565b9150509295509295909350565b600061063b8261056a565b91506106468361056a565b9250827f7fffffffffffffffffffffffffffffffffffffffffffffffffffffffffffffff04821160008413600084131616156106855761068461043f565b5b817f800000000000000000000000000000000000000000000000000000000000000005831260008412600084131616156106c2576106c161043f565b5b827f800000000000000000000000000000000000000000000000000000000000000005821260008413600084121616156106ff576106fe61043f565b5b827f7fffffffffffffffffffffffffffffffffffffffffffffffffffffffffffffff058212600084126000841216161561073c5761073b61043f565b5b828202905092915050565b600082825260208201905092915050565b7f4d696e696d756e20726571756972656420616d6f756e74206e6f742066756c6660008201527f696c6c6564000000000000000000000000000000000000000000000000000000602082015250565b60006107b4602583610747565b91506107bf82610758565b604082019050919050565b600060208201905081810360008301526107e3816107a7565b905091905056fea264697066735822122036690428106ba18caf8f03853f3f48a84c10c11592b2dcb8e45f072a4cd88ca264736f6c63430008100033",
					"opcodes": "PUSH1 0x80 PUSH1 0x40 MSTORE PUSH1 0x32 PUSH1 0x0 SSTORE CALLVALUE DUP1 ISZERO PUSH2 0x15 JUMPI PUSH1 0x0 DUP1 REVERT JUMPDEST POP PUSH2 0x820 DUP1 PUSH2 0x25 PUSH1 0x0 CODECOPY PUSH1 0x0 RETURN INVALID PUSH1 0x80 PUSH1 0x40 MSTORE PUSH1 0x4 CALLDATASIZE LT PUSH2 0x55 JUMPI PUSH1 0x0 CALLDATALOAD PUSH1 0xE0 SHR DUP1 PUSH4 0x3430A88C EQ PUSH2 0x5A JUMPI DUP1 PUSH4 0x3E47D6F3 EQ PUSH2 0x85 JUMPI DUP1 PUSH4 0x6E5B6B28 EQ PUSH2 0xC2 JUMPI DUP1 PUSH4 0x98D5FDCA EQ PUSH2 0xFF JUMPI DUP1 PUSH4 0xB60D4288 EQ PUSH2 0x12A JUMPI DUP1 PUSH4 0xDC0D3DFF EQ PUSH2 0x134 JUMPI JUMPDEST PUSH1 0x0 DUP1 REVERT JUMPDEST CALLVALUE DUP1 ISZERO PUSH2 0x66 JUMPI PUSH1 0x0 DUP1 REVERT JUMPDEST POP PUSH2 0x6F PUSH2 0x171 JUMP JUMPDEST PUSH1 0x40 MLOAD PUSH2 0x7C SWAP2 SWAP1 PUSH2 0x311 JUMP JUMPDEST PUSH1 0x40 MLOAD DUP1 SWAP2 SUB SWAP1 RETURN JUMPDEST CALLVALUE DUP1 ISZERO PUSH2 0x91 JUMPI PUSH1 0x0 DUP1 REVERT JUMPDEST POP PUSH2 0xAC PUSH1 0x4 DUP1 CALLDATASIZE SUB DUP2 ADD SWAP1 PUSH2 0xA7 SWAP2 SWAP1 PUSH2 0x38F JUMP JUMPDEST PUSH2 0x177 JUMP JUMPDEST PUSH1 0x40 MLOAD PUSH2 0xB9 SWAP2 SWAP1 PUSH2 0x311 JUMP JUMPDEST PUSH1 0x40 MLOAD DUP1 SWAP2 SUB SWAP1 RETURN JUMPDEST CALLVALUE DUP1 ISZERO PUSH2 0xCE JUMPI PUSH1 0x0 DUP1 REVERT JUMPDEST POP PUSH2 0xE9 PUSH1 0x4 DUP1 CALLDATASIZE SUB DUP2 ADD SWAP1 PUSH2 0xE4 SWAP2 SWAP1 PUSH2 0x3E8 JUMP JUMPDEST PUSH2 0x18F JUMP JUMPDEST PUSH1 0x40 MLOAD PUSH2 0xF6 SWAP2 SWAP1 PUSH2 0x311 JUMP JUMPDEST PUSH1 0x40 MLOAD DUP1 SWAP2 SUB SWAP1 RETURN JUMPDEST CALLVALUE DUP1 ISZERO PUSH2 0x10B JUMPI PUSH1 0x0 DUP1 REVERT JUMPDEST POP PUSH2 0x114 PUSH2 0x1C9 JUMP JUMPDEST PUSH1 0x40 MLOAD PUSH2 0x121 SWAP2 SWAP1 PUSH2 0x311 JUMP JUMPDEST PUSH1 0x40 MLOAD DUP1 SWAP2 SUB SWAP1 RETURN JUMPDEST PUSH2 0x132 PUSH2 0x272 JUMP JUMPDEST STOP JUMPDEST CALLVALUE DUP1 ISZERO PUSH2 0x140 JUMPI PUSH1 0x0 DUP1 REVERT JUMPDEST POP PUSH2 0x15B PUSH1 0x4 DUP1 CALLDATASIZE SUB DUP2 ADD SWAP1 PUSH2 0x156 SWAP2 SWAP1 PUSH2 0x3E8 JUMP JUMPDEST PUSH2 0x2B9 JUMP JUMPDEST PUSH1 0x40 MLOAD PUSH2 0x168 SWAP2 SWAP1 PUSH2 0x424 JUMP JUMPDEST PUSH1 0x40 MLOAD DUP1 SWAP2 SUB SWAP1 RETURN JUMPDEST PUSH1 0x0 SLOAD DUP2 JUMP JUMPDEST PUSH1 0x2 PUSH1 0x20 MSTORE DUP1 PUSH1 0x0 MSTORE PUSH1 0x40 PUSH1 0x0 KECCAK256 PUSH1 0x0 SWAP2 POP SWAP1 POP SLOAD DUP2 JUMP JUMPDEST PUSH1 0x0 DUP1 PUSH2 0x19A PUSH2 0x1C9 JUMP JUMPDEST SWAP1 POP PUSH1 0x0 PUSH8 0xDE0B6B3A7640000 DUP5 DUP4 PUSH2 0x1B3 SWAP2 SWAP1 PUSH2 0x46E JUMP JUMPDEST PUSH2 0x1BD SWAP2 SWAP1 PUSH2 0x4F7 JUMP JUMPDEST SWAP1 POP DUP1 SWAP3 POP POP POP SWAP2 SWAP1 POP JUMP JUMPDEST PUSH1 0x0 DUP1 PUSH20 0x8A753747A1FA494EC906CE90E9F37563A8AF630E SWAP1 POP PUSH1 0x0 DUP2 PUSH20 0xFFFFFFFFFFFFFFFFFFFFFFFFFFFFFFFFFFFFFFFF AND PUSH4 0xFEAF968C PUSH1 0x40 MLOAD DUP2 PUSH4 0xFFFFFFFF AND PUSH1 0xE0 SHL DUP2 MSTORE PUSH1 0x4 ADD PUSH1 0xA0 PUSH1 0x40 MLOAD DUP1 DUP4 SUB DUP2 DUP7 GAS STATICCALL ISZERO DUP1 ISZERO PUSH2 0x230 JUMPI RETURNDATASIZE PUSH1 0x0 DUP1 RETURNDATACOPY RETURNDATASIZE PUSH1 0x0 REVERT JUMPDEST POP POP POP POP PUSH1 0x40 MLOAD RETURNDATASIZE PUSH1 0x1F NOT PUSH1 0x1F DUP3 ADD AND DUP3 ADD DUP1 PUSH1 0x40 MSTORE POP DUP2 ADD SWAP1 PUSH2 0x254 SWAP2 SWAP1 PUSH2 0x5B5 JUMP JUMPDEST POP POP POP SWAP2 POP POP PUSH5 0x2540BE400 DUP2 PUSH2 0x26B SWAP2 SWAP1 PUSH2 0x630 JUMP JUMPDEST SWAP3 POP POP POP SWAP1 JUMP JUMPDEST PUSH1 0x0 SLOAD CALLVALUE LT ISZERO PUSH2 0x2B7 JUMPI PUSH1 0x40 MLOAD PUSH32 0x8C379A000000000000000000000000000000000000000000000000000000000 DUP2 MSTORE PUSH1 0x4 ADD PUSH2 0x2AE SWAP1 PUSH2 0x7CA JUMP JUMPDEST PUSH1 0x40 MLOAD DUP1 SWAP2 SUB SWAP1 REVERT JUMPDEST JUMP JUMPDEST PUSH1 0x1 DUP2 DUP2 SLOAD DUP2 LT PUSH2 0x2C9 JUMPI PUSH1 0x0 DUP1 REVERT JUMPDEST SWAP1 PUSH1 0x0 MSTORE PUSH1 0x20 PUSH1 0x0 KECCAK256 ADD PUSH1 0x0 SWAP2 POP SLOAD SWAP1 PUSH2 0x100 EXP SWAP1 DIV PUSH20 0xFFFFFFFFFFFFFFFFFFFFFFFFFFFFFFFFFFFFFFFF AND DUP2 JUMP JUMPDEST PUSH1 0x0 DUP2 SWAP1 POP SWAP2 SWAP1 POP JUMP JUMPDEST PUSH2 0x30B DUP2 PUSH2 0x2F8 JUMP JUMPDEST DUP3 MSTORE POP POP JUMP JUMPDEST PUSH1 0x0 PUSH1 0x20 DUP3 ADD SWAP1 POP PUSH2 0x326 PUSH1 0x0 DUP4 ADD DUP5 PUSH2 0x302 JUMP JUMPDEST SWAP3 SWAP2 POP POP JUMP JUMPDEST PUSH1 0x0 DUP1 REVERT JUMPDEST PUSH1 0x0 PUSH20 0xFFFFFFFFFFFFFFFFFFFFFFFFFFFFFFFFFFFFFFFF DUP3 AND SWAP1 POP SWAP2 SWAP1 POP JUMP JUMPDEST PUSH1 0x0 PUSH2 0x35C DUP3 PUSH2 0x331 JUMP JUMPDEST SWAP1 POP SWAP2 SWAP1 POP JUMP JUMPDEST PUSH2 0x36C DUP2 PUSH2 0x351 JUMP JUMPDEST DUP2 EQ PUSH2 0x377 JUMPI PUSH1 0x0 DUP1 REVERT JUMPDEST POP JUMP JUMPDEST PUSH1 0x0 DUP2 CALLDATALOAD SWAP1 POP PUSH2 0x389 DUP2 PUSH2 0x363 JUMP JUMPDEST SWAP3 SWAP2 POP POP JUMP JUMPDEST PUSH1 0x0 PUSH1 0x20 DUP3 DUP5 SUB SLT ISZERO PUSH2 0x3A5 JUMPI PUSH2 0x3A4 PUSH2 0x32C JUMP JUMPDEST JUMPDEST PUSH1 0x0 PUSH2 0x3B3 DUP5 DUP3 DUP6 ADD PUSH2 0x37A JUMP JUMPDEST SWAP2 POP POP SWAP3 SWAP2 POP POP JUMP JUMPDEST PUSH2 0x3C5 DUP2 PUSH2 0x2F8 JUMP JUMPDEST DUP2 EQ PUSH2 0x3D0 JUMPI PUSH1 0x0 DUP1 REVERT JUMPDEST POP JUMP JUMPDEST PUSH1 0x0 DUP2 CALLDATALOAD SWAP1 POP PUSH2 0x3E2 DUP2 PUSH2 0x3BC JUMP JUMPDEST SWAP3 SWAP2 POP POP JUMP JUMPDEST PUSH1 0x0 PUSH1 0x20 DUP3 DUP5 SUB SLT ISZERO PUSH2 0x3FE JUMPI PUSH2 0x3FD PUSH2 0x32C JUMP JUMPDEST JUMPDEST PUSH1 0x0 PUSH2 0x40C DUP5 DUP3 DUP6 ADD PUSH2 0x3D3 JUMP JUMPDEST SWAP2 POP POP SWAP3 SWAP2 POP POP JUMP JUMPDEST PUSH2 0x41E DUP2 PUSH2 0x351 JUMP JUMPDEST DUP3 MSTORE POP POP JUMP JUMPDEST PUSH1 0x0 PUSH1 0x20 DUP3 ADD SWAP1 POP PUSH2 0x439 PUSH1 0x0 DUP4 ADD DUP5 PUSH2 0x415 JUMP JUMPDEST SWAP3 SWAP2 POP POP JUMP JUMPDEST PUSH32 0x4E487B7100000000000000000000000000000000000000000000000000000000 PUSH1 0x0 MSTORE PUSH1 0x11 PUSH1 0x4 MSTORE PUSH1 0x24 PUSH1 0x0 REVERT JUMPDEST PUSH1 0x0 PUSH2 0x479 DUP3 PUSH2 0x2F8 JUMP JUMPDEST SWAP2 POP PUSH2 0x484 DUP4 PUSH2 0x2F8 JUMP JUMPDEST SWAP3 POP DUP2 PUSH32 0xFFFFFFFFFFFFFFFFFFFFFFFFFFFFFFFFFFFFFFFFFFFFFFFFFFFFFFFFFFFFFFFF DIV DUP4 GT DUP3 ISZERO ISZERO AND ISZERO PUSH2 0x4BD JUMPI PUSH2 0x4BC PUSH2 0x43F JUMP JUMPDEST JUMPDEST DUP3 DUP3 MUL SWAP1 POP SWAP3 SWAP2 POP POP JUMP JUMPDEST PUSH32 0x4E487B7100000000000000000000000000000000000000000000000000000000 PUSH1 0x0 MSTORE PUSH1 0x12 PUSH1 0x4 MSTORE PUSH1 0x24 PUSH1 0x0 REVERT JUMPDEST PUSH1 0x0 PUSH2 0x502 DUP3 PUSH2 0x2F8 JUMP JUMPDEST SWAP2 POP PUSH2 0x50D DUP4 PUSH2 0x2F8 JUMP JUMPDEST SWAP3 POP DUP3 PUSH2 0x51D JUMPI PUSH2 0x51C PUSH2 0x4C8 JUMP JUMPDEST JUMPDEST DUP3 DUP3 DIV SWAP1 POP SWAP3 SWAP2 POP POP JUMP JUMPDEST PUSH1 0x0 PUSH10 0xFFFFFFFFFFFFFFFFFFFF DUP3 AND SWAP1 POP SWAP2 SWAP1 POP JUMP JUMPDEST PUSH2 0x547 DUP2 PUSH2 0x528 JUMP JUMPDEST DUP2 EQ PUSH2 0x552 JUMPI PUSH1 0x0 DUP1 REVERT JUMPDEST POP JUMP JUMPDEST PUSH1 0x0 DUP2 MLOAD SWAP1 POP PUSH2 0x564 DUP2 PUSH2 0x53E JUMP JUMPDEST SWAP3 SWAP2 POP POP JUMP JUMPDEST PUSH1 0x0 DUP2 SWAP1 POP SWAP2 SWAP1 POP JUMP JUMPDEST PUSH2 0x57D DUP2 PUSH2 0x56A JUMP JUMPDEST DUP2 EQ PUSH2 0x588 JUMPI PUSH1 0x0 DUP1 REVERT JUMPDEST POP JUMP JUMPDEST PUSH1 0x0 DUP2 MLOAD SWAP1 POP PUSH2 0x59A DUP2 PUSH2 0x574 JUMP JUMPDEST SWAP3 SWAP2 POP POP JUMP JUMPDEST PUSH1 0x0 DUP2 MLOAD SWAP1 POP PUSH2 0x5AF DUP2 PUSH2 0x3BC JUMP JUMPDEST SWAP3 SWAP2 POP POP JUMP JUMPDEST PUSH1 0x0 DUP1 PUSH1 0x0 DUP1 PUSH1 0x0 PUSH1 0xA0 DUP7 DUP9 SUB SLT ISZERO PUSH2 0x5D1 JUMPI PUSH2 0x5D0 PUSH2 0x32C JUMP JUMPDEST JUMPDEST PUSH1 0x0 PUSH2 0x5DF DUP9 DUP3 DUP10 ADD PUSH2 0x555 JUMP JUMPDEST SWAP6 POP POP PUSH1 0x20 PUSH2 0x5F0 DUP9 DUP3 DUP10 ADD PUSH2 0x58B JUMP JUMPDEST SWAP5 POP POP PUSH1 0x40 PUSH2 0x601 DUP9 DUP3 DUP10 ADD PUSH2 0x5A0 JUMP JUMPDEST SWAP4 POP POP PUSH1 0x60 PUSH2 0x612 DUP9 DUP3 DUP10 ADD PUSH2 0x5A0 JUMP JUMPDEST SWAP3 POP POP PUSH1 0x80 PUSH2 0x623 DUP9 DUP3 DUP10 ADD PUSH2 0x555 JUMP JUMPDEST SWAP2 POP POP SWAP3 SWAP6 POP SWAP3 SWAP6 SWAP1 SWAP4 POP JUMP JUMPDEST PUSH1 0x0 PUSH2 0x63B DUP3 PUSH2 0x56A JUMP JUMPDEST SWAP2 POP PUSH2 0x646 DUP4 PUSH2 0x56A JUMP JUMPDEST SWAP3 POP DUP3 PUSH32 0x7FFFFFFFFFFFFFFFFFFFFFFFFFFFFFFFFFFFFFFFFFFFFFFFFFFFFFFFFFFFFFFF DIV DUP3 GT PUSH1 0x0 DUP5 SGT PUSH1 0x0 DUP5 SGT AND AND ISZERO PUSH2 0x685 JUMPI PUSH2 0x684 PUSH2 0x43F JUMP JUMPDEST JUMPDEST DUP2 PUSH32 0x8000000000000000000000000000000000000000000000000000000000000000 SDIV DUP4 SLT PUSH1 0x0 DUP5 SLT PUSH1 0x0 DUP5 SGT AND AND ISZERO PUSH2 0x6C2 JUMPI PUSH2 0x6C1 PUSH2 0x43F JUMP JUMPDEST JUMPDEST DUP3 PUSH32 0x8000000000000000000000000000000000000000000000000000000000000000 SDIV DUP3 SLT PUSH1 0x0 DUP5 SGT PUSH1 0x0 DUP5 SLT AND AND ISZERO PUSH2 0x6FF JUMPI PUSH2 0x6FE PUSH2 0x43F JUMP JUMPDEST JUMPDEST DUP3 PUSH32 0x7FFFFFFFFFFFFFFFFFFFFFFFFFFFFFFFFFFFFFFFFFFFFFFFFFFFFFFFFFFFFFFF SDIV DUP3 SLT PUSH1 0x0 DUP5 SLT PUSH1 0x0 DUP5 SLT AND AND ISZERO PUSH2 0x73C JUMPI PUSH2 0x73B PUSH2 0x43F JUMP JUMPDEST JUMPDEST DUP3 DUP3 MUL SWAP1 POP SWAP3 SWAP2 POP POP JUMP JUMPDEST PUSH1 0x0 DUP3 DUP3 MSTORE PUSH1 0x20 DUP3 ADD SWAP1 POP SWAP3 SWAP2 POP POP JUMP JUMPDEST PUSH32 0x4D696E696D756E20726571756972656420616D6F756E74206E6F742066756C66 PUSH1 0x0 DUP3 ADD MSTORE PUSH32 0x696C6C6564000000000000000000000000000000000000000000000000000000 PUSH1 0x20 DUP3 ADD MSTORE POP JUMP JUMPDEST PUSH1 0x0 PUSH2 0x7B4 PUSH1 0x25 DUP4 PUSH2 0x747 JUMP JUMPDEST SWAP2 POP PUSH2 0x7BF DUP3 PUSH2 0x758 JUMP JUMPDEST PUSH1 0x40 DUP3 ADD SWAP1 POP SWAP2 SWAP1 POP JUMP JUMPDEST PUSH1 0x0 PUSH1 0x20 DUP3 ADD SWAP1 POP DUP2 DUP2 SUB PUSH1 0x0 DUP4 ADD MSTORE PUSH2 0x7E3 DUP2 PUSH2 0x7A7 JUMP JUMPDEST SWAP1 POP SWAP2 SWAP1 POP JUMP INVALID LOG2 PUSH5 0x6970667358 0x22 SLT KECCAK256 CALLDATASIZE PUSH10 0x428106BA18CAF8F0385 EXTCODEHASH EXTCODEHASH BASEFEE 0xA8 0x4C LT 0xC1 ISZERO SWAP3 0xB2 0xDC 0xB8 0xE4 0x5F SMOD 0x2A 0x4C 0xD8 DUP13 LOG2 PUSH5 0x736F6C6343 STOP ADDMOD LT STOP CALLER "
				},
				"gasEstimates": {
					"creation": {
						"codeDepositCost": "416000",
						"executionCost": "22555",
						"totalCost": "438555"
					},
					"external": {
						"addressToAmountFunded(address)": "2814",
						"fund()": "2618",
						"funders(uint256)": "5044",
						"getConversionRate(uint256)": "infinite",
						"getPrice()": "infinite",
						"minimumUSD()": "2407"
					}
				},
				"methodIdentifiers": {
					"addressToAmountFunded(address)": "3e47d6f3",
					"fund()": "b60d4288",
					"funders(uint256)": "dc0d3dff",
					"getConversionRate(uint256)": "6e5b6b28",
					"getPrice()": "98d5fdca",
					"minimumUSD()": "3430a88c"
				}
			},
			"storageLayout": {
				"storage": [
					{
						"astId": 51,
						"contract": "contracts/Fund_Me.sol:FundMe",
						"label": "minimumUSD",
						"offset": 0,
						"slot": "0",
						"type": "t_uint256"
					},
					{
						"astId": 54,
						"contract": "contracts/Fund_Me.sol:FundMe",
						"label": "funders",
						"offset": 0,
						"slot": "1",
						"type": "t_array(t_address)dyn_storage"
					},
					{
						"astId": 58,
						"contract": "contracts/Fund_Me.sol:FundMe",
						"label": "addressToAmountFunded",
						"offset": 0,
						"slot": "2",
						"type": "t_mapping(t_address,t_uint256)"
					}
				],
				"types": {
					"t_address": {
						"encoding": "inplace",
						"label": "address",
						"numberOfBytes": "20"
					},
					"t_array(t_address)dyn_storage": {
						"base": "t_address",
						"encoding": "dynamic_array",
						"label": "address[]",
						"numberOfBytes": "32"
					},
					"t_mapping(t_address,t_uint256)": {
						"encoding": "mapping",
						"key": "t_address",
						"label": "mapping(address => uint256)",
						"numberOfBytes": "32",
						"value": "t_uint256"
					},
					"t_uint256": {
						"encoding": "inplace",
						"label": "uint256",
						"numberOfBytes": "32"
					}
				}
			},
			"userdoc": {
				"kind": "user",
				"methods": {},
				"version": 1
			}
		}
	}
}