{
	"contracts/Fund_Me.sol": {
		"FundMe": {
			"abi": [
				{
					"inputs": [],
					"name": "fund",
					"outputs": [],
					"stateMutability": "payable",
					"type": "function"
				},
				{
					"inputs": [],
					"name": "getPrice",
					"outputs": [
						{
							"internalType": "uint256",
							"name": "",
							"type": "uint256"
						}
					],
					"stateMutability": "view",
					"type": "function"
				}
			],
			"devdoc": {
				"kind": "dev",
				"methods": {},
				"version": 1
			},
			"evm": {
				"assembly": "    /* \"contracts/Fund_Me.sol\":240:664  contract FundMe {... */\n  mstore(0x40, 0x80)\n  callvalue\n  dup1\n  iszero\n  tag_1\n  jumpi\n  0x00\n  dup1\n  revert\ntag_1:\n  pop\n  dataSize(sub_0)\n  dup1\n  dataOffset(sub_0)\n  0x00\n  codecopy\n  0x00\n  return\nstop\n\nsub_0: assembly {\n        /* \"contracts/Fund_Me.sol\":240:664  contract FundMe {... */\n      mstore(0x40, 0x80)\n      jumpi(tag_1, lt(calldatasize, 0x04))\n      shr(0xe0, calldataload(0x00))\n      dup1\n      0x98d5fdca\n      eq\n      tag_2\n      jumpi\n      dup1\n      0xb60d4288\n      eq\n      tag_3\n      jumpi\n    tag_1:\n      0x00\n      dup1\n      revert\n        /* \"contracts/Fund_Me.sol\":590:661  function getPrice() public view returns(uint256) {... */\n    tag_2:\n      callvalue\n      dup1\n      iszero\n      tag_4\n      jumpi\n      0x00\n      dup1\n      revert\n    tag_4:\n      pop\n      tag_5\n      tag_6\n      jump\t// in\n    tag_5:\n      mload(0x40)\n      tag_7\n      swap2\n      swap1\n      tag_8\n      jump\t// in\n    tag_7:\n      mload(0x40)\n      dup1\n      swap2\n      sub\n      swap1\n      return\n        /* \"contracts/Fund_Me.sol\":265:582  function  fund() public payable ... */\n    tag_3:\n      tag_9\n      tag_10\n      jump\t// in\n    tag_9:\n      stop\n        /* \"contracts/Fund_Me.sol\":590:661  function getPrice() public view returns(uint256) {... */\n    tag_6:\n        /* \"contracts/Fund_Me.sol\":630:637  uint256 */\n      0x00\n        /* \"contracts/Fund_Me.sol\":590:661  function getPrice() public view returns(uint256) {... */\n      swap1\n      jump\t// out\n        /* \"contracts/Fund_Me.sol\":265:582  function  fund() public payable ... */\n    tag_10:\n        /* \"contracts/Fund_Me.sol\":432:436  1e18 */\n      0x0de0b6b3a7640000\n        /* \"contracts/Fund_Me.sol\":422:431  msg.value */\n      callvalue\n        /* \"contracts/Fund_Me.sol\":422:436  msg.value>1e18 */\n      gt\n        /* \"contracts/Fund_Me.sol\":414:477  require(msg.value>1e18,\"Minimun required amount not fulfilled\") */\n      tag_13\n      jumpi\n      mload(0x40)\n      0x08c379a000000000000000000000000000000000000000000000000000000000\n      dup2\n      mstore\n      0x04\n      add\n      tag_14\n      swap1\n      tag_15\n      jump\t// in\n    tag_14:\n      mload(0x40)\n      dup1\n      swap2\n      sub\n      swap1\n      revert\n    tag_13:\n        /* \"contracts/Fund_Me.sol\":265:582  function  fund() public payable ... */\n      jump\t// out\n        /* \"#utility.yul\":7:84   */\n    tag_16:\n        /* \"#utility.yul\":44:51   */\n      0x00\n        /* \"#utility.yul\":73:78   */\n      dup2\n        /* \"#utility.yul\":62:78   */\n      swap1\n      pop\n        /* \"#utility.yul\":7:84   */\n      swap2\n      swap1\n      pop\n      jump\t// out\n        /* \"#utility.yul\":90:208   */\n    tag_17:\n        /* \"#utility.yul\":177:201   */\n      tag_24\n        /* \"#utility.yul\":195:200   */\n      dup2\n        /* \"#utility.yul\":177:201   */\n      tag_16\n      jump\t// in\n    tag_24:\n        /* \"#utility.yul\":172:175   */\n      dup3\n        /* \"#utility.yul\":165:202   */\n      mstore\n        /* \"#utility.yul\":90:208   */\n      pop\n      pop\n      jump\t// out\n        /* \"#utility.yul\":214:436   */\n    tag_8:\n        /* \"#utility.yul\":307:311   */\n      0x00\n        /* \"#utility.yul\":345:347   */\n      0x20\n        /* \"#utility.yul\":334:343   */\n      dup3\n        /* \"#utility.yul\":330:348   */\n      add\n        /* \"#utility.yul\":322:348   */\n      swap1\n      pop\n        /* \"#utility.yul\":358:429   */\n      tag_26\n        /* \"#utility.yul\":426:427   */\n      0x00\n        /* \"#utility.yul\":415:424   */\n      dup4\n        /* \"#utility.yul\":411:428   */\n      add\n        /* \"#utility.yul\":402:408   */\n      dup5\n        /* \"#utility.yul\":358:429   */\n      tag_17\n      jump\t// in\n    tag_26:\n        /* \"#utility.yul\":214:436   */\n      swap3\n      swap2\n      pop\n      pop\n      jump\t// out\n        /* \"#utility.yul\":442:611   */\n    tag_18:\n        /* \"#utility.yul\":526:537   */\n      0x00\n        /* \"#utility.yul\":560:566   */\n      dup3\n        /* \"#utility.yul\":555:558   */\n      dup3\n        /* \"#utility.yul\":548:567   */\n      mstore\n        /* \"#utility.yul\":600:604   */\n      0x20\n        /* \"#utility.yul\":595:598   */\n      dup3\n        /* \"#utility.yul\":591:605   */\n      add\n        /* \"#utility.yul\":576:605   */\n      swap1\n      pop\n        /* \"#utility.yul\":442:611   */\n      swap3\n      swap2\n      pop\n      pop\n      jump\t// out\n        /* \"#utility.yul\":617:841   */\n    tag_19:\n        /* \"#utility.yul\":757:791   */\n      0x4d696e696d756e20726571756972656420616d6f756e74206e6f742066756c66\n        /* \"#utility.yul\":753:754   */\n      0x00\n        /* \"#utility.yul\":745:751   */\n      dup3\n        /* \"#utility.yul\":741:755   */\n      add\n        /* \"#utility.yul\":734:792   */\n      mstore\n        /* \"#utility.yul\":826:833   */\n      0x696c6c6564000000000000000000000000000000000000000000000000000000\n        /* \"#utility.yul\":821:823   */\n      0x20\n        /* \"#utility.yul\":813:819   */\n      dup3\n        /* \"#utility.yul\":809:824   */\n      add\n        /* \"#utility.yul\":802:834   */\n      mstore\n        /* \"#utility.yul\":617:841   */\n      pop\n      jump\t// out\n        /* \"#utility.yul\":847:1213   */\n    tag_20:\n        /* \"#utility.yul\":989:992   */\n      0x00\n        /* \"#utility.yul\":1010:1077   */\n      tag_30\n        /* \"#utility.yul\":1074:1076   */\n      0x25\n        /* \"#utility.yul\":1069:1072   */\n      dup4\n        /* \"#utility.yul\":1010:1077   */\n      tag_18\n      jump\t// in\n    tag_30:\n        /* \"#utility.yul\":1003:1077   */\n      swap2\n      pop\n        /* \"#utility.yul\":1086:1179   */\n      tag_31\n        /* \"#utility.yul\":1175:1178   */\n      dup3\n        /* \"#utility.yul\":1086:1179   */\n      tag_19\n      jump\t// in\n    tag_31:\n        /* \"#utility.yul\":1204:1206   */\n      0x40\n        /* \"#utility.yul\":1199:1202   */\n      dup3\n        /* \"#utility.yul\":1195:1207   */\n      add\n        /* \"#utility.yul\":1188:1207   */\n      swap1\n      pop\n        /* \"#utility.yul\":847:1213   */\n      swap2\n      swap1\n      pop\n      jump\t// out\n        /* \"#utility.yul\":1219:1638   */\n    tag_15:\n        /* \"#utility.yul\":1385:1389   */\n      0x00\n        /* \"#utility.yul\":1423:1425   */\n      0x20\n        /* \"#utility.yul\":1412:1421   */\n      dup3\n        /* \"#utility.yul\":1408:1426   */\n      add\n        /* \"#utility.yul\":1400:1426   */\n      swap1\n      pop\n        /* \"#utility.yul\":1472:1481   */\n      dup2\n        /* \"#utility.yul\":1466:1470   */\n      dup2\n        /* \"#utility.yul\":1462:1482   */\n      sub\n        /* \"#utility.yul\":1458:1459   */\n      0x00\n        /* \"#utility.yul\":1447:1456   */\n      dup4\n        /* \"#utility.yul\":1443:1460   */\n      add\n        /* \"#utility.yul\":1436:1483   */\n      mstore\n        /* \"#utility.yul\":1500:1631   */\n      tag_33\n        /* \"#utility.yul\":1626:1630   */\n      dup2\n        /* \"#utility.yul\":1500:1631   */\n      tag_20\n      jump\t// in\n    tag_33:\n        /* \"#utility.yul\":1492:1631   */\n      swap1\n      pop\n        /* \"#utility.yul\":1219:1638   */\n      swap2\n      swap1\n      pop\n      jump\t// out\n\n    auxdata: 0xa26469706673582212200429c79f8b330868d99cc5980f520afa58b1f79d3344a1d2dbbce9250dffed0f64736f6c63430008100033\n}\n",
				"bytecode": {
					"linkReferences": {},
					"object": "608060405234801561001057600080fd5b506101c1806100206000396000f3fe6080604052600436106100295760003560e01c806398d5fdca1461002e578063b60d428814610059575b600080fd5b34801561003a57600080fd5b50610043610063565b60405161005091906100cd565b60405180910390f35b610061610068565b005b600090565b670de0b6b3a764000034116100b2576040517f08c379a00000000000000000000000000000000000000000000000000000000081526004016100a99061016b565b60405180910390fd5b565b6000819050919050565b6100c7816100b4565b82525050565b60006020820190506100e260008301846100be565b92915050565b600082825260208201905092915050565b7f4d696e696d756e20726571756972656420616d6f756e74206e6f742066756c6660008201527f696c6c6564000000000000000000000000000000000000000000000000000000602082015250565b60006101556025836100e8565b9150610160826100f9565b604082019050919050565b6000602082019050818103600083015261018481610148565b905091905056fea26469706673582212200429c79f8b330868d99cc5980f520afa58b1f79d3344a1d2dbbce9250dffed0f64736f6c63430008100033",
					"opcodes": "PUSH1 0x80 PUSH1 0x40 MSTORE CALLVALUE DUP1 ISZERO PUSH2 0x10 JUMPI PUSH1 0x0 DUP1 REVERT JUMPDEST POP PUSH2 0x1C1 DUP1 PUSH2 0x20 PUSH1 0x0 CODECOPY PUSH1 0x0 RETURN INVALID PUSH1 0x80 PUSH1 0x40 MSTORE PUSH1 0x4 CALLDATASIZE LT PUSH2 0x29 JUMPI PUSH1 0x0 CALLDATALOAD PUSH1 0xE0 SHR DUP1 PUSH4 0x98D5FDCA EQ PUSH2 0x2E JUMPI DUP1 PUSH4 0xB60D4288 EQ PUSH2 0x59 JUMPI JUMPDEST PUSH1 0x0 DUP1 REVERT JUMPDEST CALLVALUE DUP1 ISZERO PUSH2 0x3A JUMPI PUSH1 0x0 DUP1 REVERT JUMPDEST POP PUSH2 0x43 PUSH2 0x63 JUMP JUMPDEST PUSH1 0x40 MLOAD PUSH2 0x50 SWAP2 SWAP1 PUSH2 0xCD JUMP JUMPDEST PUSH1 0x40 MLOAD DUP1 SWAP2 SUB SWAP1 RETURN JUMPDEST PUSH2 0x61 PUSH2 0x68 JUMP JUMPDEST STOP JUMPDEST PUSH1 0x0 SWAP1 JUMP JUMPDEST PUSH8 0xDE0B6B3A7640000 CALLVALUE GT PUSH2 0xB2 JUMPI PUSH1 0x40 MLOAD PUSH32 0x8C379A000000000000000000000000000000000000000000000000000000000 DUP2 MSTORE PUSH1 0x4 ADD PUSH2 0xA9 SWAP1 PUSH2 0x16B JUMP JUMPDEST PUSH1 0x40 MLOAD DUP1 SWAP2 SUB SWAP1 REVERT JUMPDEST JUMP JUMPDEST PUSH1 0x0 DUP2 SWAP1 POP SWAP2 SWAP1 POP JUMP JUMPDEST PUSH2 0xC7 DUP2 PUSH2 0xB4 JUMP JUMPDEST DUP3 MSTORE POP POP JUMP JUMPDEST PUSH1 0x0 PUSH1 0x20 DUP3 ADD SWAP1 POP PUSH2 0xE2 PUSH1 0x0 DUP4 ADD DUP5 PUSH2 0xBE JUMP JUMPDEST SWAP3 SWAP2 POP POP JUMP JUMPDEST PUSH1 0x0 DUP3 DUP3 MSTORE PUSH1 0x20 DUP3 ADD SWAP1 POP SWAP3 SWAP2 POP POP JUMP JUMPDEST PUSH32 0x4D696E696D756E20726571756972656420616D6F756E74206E6F742066756C66 PUSH1 0x0 DUP3 ADD MSTORE PUSH32 0x696C6C6564000000000000000000000000000000000000000000000000000000 PUSH1 0x20 DUP3 ADD MSTORE POP JUMP JUMPDEST PUSH1 0x0 PUSH2 0x155 PUSH1 0x25 DUP4 PUSH2 0xE8 JUMP JUMPDEST SWAP2 POP PUSH2 0x160 DUP3 PUSH2 0xF9 JUMP JUMPDEST PUSH1 0x40 DUP3 ADD SWAP1 POP SWAP2 SWAP1 POP JUMP JUMPDEST PUSH1 0x0 PUSH1 0x20 DUP3 ADD SWAP1 POP DUP2 DUP2 SUB PUSH1 0x0 DUP4 ADD MSTORE PUSH2 0x184 DUP2 PUSH2 0x148 JUMP JUMPDEST SWAP1 POP SWAP2 SWAP1 POP JUMP INVALID LOG2 PUSH5 0x6970667358 0x22 SLT KECCAK256 DIV 0x29 0xC7 SWAP16 DUP12 CALLER ADDMOD PUSH9 0xD99CC5980F520AFA58 0xB1 0xF7 SWAP14 CALLER DIFFICULTY LOG1 0xD2 0xDB 0xBC 0xE9 0x25 0xD SELFDESTRUCT 0xED 0xF PUSH5 0x736F6C6343 STOP ADDMOD LT STOP CALLER "
				},
				"gasEstimates": {
					"creation": {
						"codeDepositCost": "89800",
						"executionCost": "141",
						"totalCost": "89941"
					},
					"external": {
						"fund()": "449",
						"getPrice()": "307"
					}
				},
				"methodIdentifiers": {
					"fund()": "b60d4288",
					"getPrice()": "98d5fdca"
				}
			},
			"storageLayout": {
				"storage": [],
				"types": null
			},
			"userdoc": {
				"kind": "user",
				"methods": {},
				"version": 1
			}
		}
	}
}